:020000040800F2
:1000000000000220095F00086D1700086F17000844
:10001000711700087317000875170008000000002A
:10002000000000000000000000000000771700083A
:1000300079170008000000007B1700087D170008F2
:10004000595F0008595F0008595F0008595F0008B0
:10005000595F0008595F0008595F0008595F0008A0
:10006000595F0008595F0008595F0008595F000890
:10007000595F0008595F0008595F0008595F000880
:10008000595F0008595F0008595F0008595F000870
:10009000595F0008595F0008595F0008595F000860
:1000A000595F0008595F0008595F0008595F000850
:1000B000595F0008595F0008595F0008595F000840
:1000C000595F0008595F0008595F0008595F000830
:1000D000595F0008595F0008595F0008595F000820
:1000E000595F0008595F0008595F0008595F000810
:1000F000595F0008595F0008595F0008595F000800
:10010000595F0008595F0008595F0008595F0008EF
:10011000595F0008595F0008595F0008595F0008DF
:10012000595F0008595F0008595F0008595F0008CF
:10013000595F0008595F0008595F0008595F0008BF
:10014000595F0008595F0008595F000885170008CB
:10015000595F0008595F0008595F0008595F00089F
:10016000595F0008595F0008595F0008595F00088F
:10017000595F0008595F0008595F0008000000003F
:08018000595F0008595F0008F7
:1001C00010B5054C237833B9044B13B10448AFF391
:1001D00000800123237010BDD8090020000000001A
:1001E00090BF000808B5034B1BB103490348AFF3A8
:1001F000008008BD00000000DC09002090BF00085E
:1002000053B94AB9002908BF00281CBF4FF0FF317D
:100210004FF0FF3000F074B9ADF1080C6DE904CE79
:1002200000F006F8DDF804E0DDE9022304B07047D1
:100230002DE9F047089E0D4604468846002B4DD117
:100240008A42944668D9B2FA82F252B101FA02F3B4
:10025000C2F1200120FA01F10CFA02FC41EA030884
:1002600094404FEA1C45210CB8FBF5FE1FFA8CF7B1
:1002700005FB1E8341EA03430EFB07F199420BD9AC
:100280001CEB03030EF1FF3080F01E81994240F217
:100290001B81AEF1020E63445B1AA4B2B3FBF5F00E
:1002A00005FB103344EA034400FB07F7A7420AD9D1
:1002B0001CEB040400F1FF3380F00881A74240F2F8
:1002C000058164440238E41B40EA0E4000211EB15F
:1002D000D4400023C6E90043BDE8F0878B4208D92B
:1002E000002E00F0EE800021C6E900050846BDE8BA
:1002F000F087B3FA83F100294AD1AB4202D382429C
:1003000000F2F980841A65EB030301209846002E61
:10031000E2D0C6E90048DFE702B9FFDEB2FA82F2B6
:10032000002A40F09180A1EB0C054FEA1C471FFA10
:100330008CFE0121B5FBF7F307FB1350250C45EAB2
:1003400000450EFB03F0A84208D91CEB050503F19C
:10035000FF3802D2A84200F2CB8043462D1AA4B245
:10036000B5FBF7F007FB105544EA05440EFB00FE11
:10037000A64508D91CEB040400F1FF3502D2A645BE
:1003800000F2BB802846A4EB0E0440EA03409EE73F
:10039000C1F120078B4022FA07FC4CEA030C20FA3B
:1003A00007F405FA01F31C43FD404FEA1C4900FA2B
:1003B00001F3B5FBF9F8200C1FFA8CFE09FB185568
:1003C00040EA054508FB0EF0A84202FA01F20BD9FB
:1003D0001CEB050508F1FF3A80F08880A84240F246
:1003E0008580A8F1020865442D1AA4B2B5FBF9F086
:1003F00009FB105544EA054500FB0EFEAE4508D941
:100400001CEB050500F1FF346CD2AE456AD9023809
:10041000654440EA0840A0FB0294A5EB0E05A54206
:10042000C846A64656D353D05EB1B3EB080265EB7F
:100430000E0505FA07F722FA01F3CD401F43C6E97E
:1004400000750021BDE8F087C2F1200320FA03F116
:100450000CFA02FC25FA03F395400D434FEA1C47C2
:100460001FFA8CFEB3FBF7F107FB11302B0C43EAAC
:10047000004301FB0EF0984204FA02F408D91CEB89
:10048000030301F1FF382FD298422DD9023963447A
:100490001B1AADB2B3FBF7F007FB103345EA034577
:1004A00000FB0EF3AB4208D91CEB050500F1FF3849
:1004B00016D2AB4214D902386544ED1A40EA014124
:1004C00038E73146304607E78646E5E61846FAE65D
:1004D0004B45A9D2B9EB020864EB0C0E0138A3E737
:1004E0004046EAE7204694E74146D1E7D0467BE71D
:1004F000023B654432E7084609E76444023842E7B4
:10050000704700BF00000000000000000000000075
:1005100000000000000000000000000000000000DB
:1005200000000000000000000000000000000000CB
:1005300000000000000000000000000000000000BB
:1005400090F800F06DE9024520F007016FF0000C13
:1005500010F0070491F820F040F049804FF00004BB
:100560006FF00700D1E9002391F840F000F1080096
:1005700082FA4CF2A4FA8CF283FA4CF3A2FA8CF3CE
:100580004BBBD1E9022382FA4CF200F10800A4FA35
:100590008CF283FA4CF3A2FA8CF3E3B9D1E9042389
:1005A00082FA4CF200F10800A4FA8CF283FA4CF3C0
:1005B000A2FA8CF37BB9D1E9062301F1200182FA7A
:1005C0004CF200F10800A4FA8CF283FA4CF3A2FA80
:1005D0008CF3002BC6D0002A04BF04301A4612BA8E
:1005E000B2FA82F2FDE8024500EBD2007047D1E991
:1005F000002304F00305C4F100004FEAC50514F020
:10060000040F91F840F00CFA05F562EA05021CBFF0
:1006100063EA050362464FF00004A9E7000000000A
:1006200001F0FF01102A2BDB10F0070F08D010F8A3
:10063000013B013A8B422DD010F0070F42B3F6D1A7
:10064000F0B441EA012141EA014122F007047FF0C0
:1006500000070023F0E80256083C85EA010586EA17
:10066000010685FA47F5A3FA87F586FA47F6A5FA53
:1006700087F68EB9EED1F0BC01F0FF0102F007025F
:1006800032B110F8013B013A83EA010313B1F8D10A
:100690000020704701387047002D06BF35460338EB
:1006A000073815F0010F07D1013015F4807F02BF24
:1006B000013015F4C03F0130F0BC0138704700BF75
:1006C000844641EA000313F003036DD1403A41D35D
:1006D00051F8043B40F8043B51F8043B40F8043B1C
:1006E00051F8043B40F8043B51F8043B40F8043B0C
:1006F00051F8043B40F8043B51F8043B40F8043BFC
:1007000051F8043B40F8043B51F8043B40F8043BEB
:1007100051F8043B40F8043B51F8043B40F8043BDB
:1007200051F8043B40F8043B51F8043B40F8043BCB
:1007300051F8043B40F8043B51F8043B40F8043BBB
:1007400051F8043B40F8043B51F8043B40F8043BAB
:10075000403ABDD2303211D351F8043B40F8043B4B
:1007600051F8043B40F8043B51F8043B40F8043B8B
:1007700051F8043B40F8043B103AEDD20C3205D35B
:1007800051F8043B40F8043B043AF9D2043208D053
:10079000D2071CBF11F8013B00F8013B01D30B88C5
:1007A00003806046704700BF082A13D38B078DD0A3
:1007B00010F003038AD0C3F10403D21ADB071CBF75
:1007C00011F8013B00F8013B80D331F8023B20F8DF
:1007D000023B7BE7043AD9D3013A11F8013B00F818
:1007E000013BF9D20B7803704B7843708B788370A0
:1007F0006046704781F0004102E000BF83F0004393
:1008000030B54FEA41044FEA430594EA050F08BFAB
:1008100090EA020F1FBF54EA000C55EA020C7FEA6F
:10082000645C7FEA655C00F0E2804FEA5454D4EBEC
:100830005555B8BF6D420CDD2C4480EA020281EAB6
:10084000030382EA000083EA010180EA020281EAEE
:100850000303362D88BF30BD11F0004F4FEA013140
:100860004FF4801C4CEA113102D0404261EB41014F
:1008700013F0004F4FEA03334CEA133302D05242D5
:1008800063EB430394EA050F00F0A780A4F1010491
:10089000D5F1200E0DDB02FA0EFC22FA05F28018CB
:1008A00041F1000103FA0EF2801843FA05F35941B1
:1008B0000EE0A5F120050EF1200E012A03FA0EFC30
:1008C00028BF4CF0020C43FA05F3C01851EBE3715A
:1008D00001F0004507D54FF0000EDCF1000C7EEB77
:1008E00000006EEB0101B1F5801F1BD3B1F5001FB5
:1008F0000CD349085FEA30004FEA3C0C04F10104D4
:100900004FEA445212F5800F80F09A80BCF1004FFC
:1009100008BF5FEA500C50F1000041EB045141EA7E
:10092000050130BD5FEA4C0C404141EB0101013C47
:1009300028BFB1F5801FE9D291F0000F04BF014636
:100940000020B1FA81F308BF2033A3F10B03B3F108
:1009500020020CDA0C3208DD02F1140CC2F10C0298
:1009600001FA0CF021FA02F10CE002F11402D8BFF6
:10097000C2F1200C01FA02F120FA0CFCDCBF41EAC2
:100980000C019040E41AA2BF01EB0451294330BD91
:100990006FEA04041F3C1CDA0C340EDC04F114046E
:1009A000C4F1200220FA04F001FA02F340EA030045
:1009B00021FA04F345EA030130BDC4F10C04C4F18B
:1009C000200220FA02F001FA04F340EA030029466B
:1009D00030BD21FA04F0294630BD94F0000F83F4B5
:1009E000801306BF81F480110134013D4EE77FEA98
:1009F000645C18BF7FEA655C29D094EA050F08BFE4
:100A000090EA020F05D054EA000C04BF19461046C4
:100A100030BD91EA030F1EBF0021002030BD5FEA08
:100A2000545C05D14000494128BF41F0004130BD30
:100A300014F580043CBF01F5801130BD01F0004584
:100A400045F0FE4141F470014FF0000030BD7FEAF7
:100A5000645C1ABF194610467FEA655C1CBF0B46F2
:100A6000024650EA013406BF52EA033591EA030F09
:100A700041F4002130BD00BF90F0000F04BF002101
:100A8000704730B54FF4806404F132044FF0000534
:100A90004FF0000150E700BF90F0000F04BF0021AD
:100AA000704730B54FF4806404F1320410F0004513
:100AB00048BF40424FF000013EE700BF42004FEA0E
:100AC000E2014FEA31014FEA02701FBF12F07F438B
:100AD00093F07F4F81F06051704732F07F4208BF42
:100AE000704793F07F4F04BF41F40021704730B549
:100AF0004FF4607401F0004521F000411CE700BF95
:100B000050EA010208BF704730B54FF000050AE017
:100B100050EA010208BF704730B511F0004502D518
:100B2000404261EB41014FF4806404F132045FEA1A
:100B3000915C3FF4D8AE4FF003025FEADC0C18BFC3
:100B400003325FEADC0C18BF033202EBDC02C2F1B5
:100B5000200300FA03FC20FA02F001FA03FE40EA47
:100B60000E0021FA02F11444BDE600BF70B54FF04B
:100B7000FF0C4CF4E06C1CEA11541DBF1CEA135529
:100B800094EA0C0F95EA0C0F00F0DEF82C4481EA91
:100B9000030621EA4C5123EA4C5350EA013518BFB1
:100BA00052EA033541F4801143F4801338D0A0FB9E
:100BB00002CE4FF00005E1FB02E506F00042E0FB4B
:100BC00003E54FF00006E1FB03569CF0000F18BF51
:100BD0004EF0010EA4F1FF04B6F5007F64F54074F9
:100BE00004D25FEA4E0E6D4146EB060642EAC6218C
:100BF00041EA55514FEAC52040EA5E504FEACE2EF9
:100C0000B4F1FD0C88BFBCF5E06F1ED8BEF1004FFB
:100C100008BF5FEA500E50F1000041EB045170BD77
:100C200006F0004646EA010140EA020081EA0301BB
:100C3000B4EB5C04C2BFD4EB0C0541EA045170BDB7
:100C400041F480114FF0000E013C00F3AB8014F131
:100C5000360FDEBF002001F0004170BDC4F100047A
:100C6000203C35DA0C341BDC04F11404C4F12005FB
:100C700000FA05F320FA04F001FA05F240EA020056
:100C800001F0004221F0004110EBD37021FA04F68C
:100C900042EB06015EEA430E08BF20EAD37070BD46
:100CA000C4F10C04C4F1200500FA04F320FA05F0A5
:100CB00001FA04F240EA020001F0004110EBD370A7
:100CC00041F100015EEA430E08BF20EAD37070BD17
:100CD000C4F1200500FA05F24EEA020E20FA04F3F0
:100CE00001FA05F243EA020321FA04F001F000419F
:100CF00021FA04F220EA020000EBD3705EEA430E10
:100D000008BF20EAD37070BD94F0000F0FD101F03E
:100D10000046400041EB010111F4801F08BF013C77
:100D2000F7D041EA060195F0000F18BF704703F0B5
:100D30000046520043EB030313F4801F08BF013D3C
:100D4000F7D043EA0603704794EA0C0F0CEA1355F8
:100D500018BF95EA0C0F0CD050EA410618BF52EAB2
:100D60004306D1D181EA030101F000414FF00000B8
:100D700070BD50EA410606BF1046194652EA4306C6
:100D800019D094EA0C0F02D150EA013613D195EA3A
:100D90000C0F05D152EA03361CBF104619460AD182
:100DA00081EA030101F0004141F0FE4141F470018C
:100DB0004FF0000070BD41F0FE4141F4780170BD7C
:100DC00070B54FF0FF0C4CF4E06C1CEA11541DBFE1
:100DD0001CEA135594EA0C0F95EA0C0F00F0A7F8E3
:100DE000A4EB050481EA030E52EA03354FEA013110
:100DF00000F088804FEA03334FF0805545EA131323
:100E000043EA12634FEA022245EA111545EA1065EA
:100E10004FEA00260EF000419D4208BF964244F181
:100E2000FD0404F5407402D25B084FEA3202B61AA0
:100E300065EB03055B084FEA32024FF480104FF474
:100E4000002CB6EB020E75EB030E22BFB61A7546E8
:100E500040EA0C005B084FEA3202B6EB020E75EB7B
:100E6000030E22BFB61A754640EA5C005B084FEAE3
:100E70003202B6EB020E75EB030E22BFB61A7546B0
:100E800040EA9C005B084FEA3202B6EB020E75EBBB
:100E9000030E22BFB61A754640EADC0055EA060E7C
:100EA00018D04FEA051545EA16754FEA06164FEABF
:100EB000C30343EA52734FEAC2025FEA1C1CC0D16B
:100EC00011F4801F0BD141EA00014FF000004FF0F8
:100ED000004CB6E711F4801F04BF01430020B4F1B9
:100EE000FD0C88BFBCF5E06F3FF6AFAEB5EB030C71
:100EF00004BFB6EB020C5FEA500C50F1000041EB6E
:100F0000045170BD0EF0004E4EEA113114EB5C043A
:100F1000C2BFD4EB0C0541EA045170BD41F480110D
:100F20004FF0000E013C90E645EA060E8DE60CEA15
:100F3000135594EA0C0F08BF95EA0C0F3FF43BAF32
:100F400094EA0C0F0AD150EA01347FF434AF95EAE9
:100F50000C0F7FF425AF104619462CE795EA0C0FCD
:100F600006D152EA03353FF4FDAE1046194622E79A
:100F700050EA410618BF52EA43067FF4C5AE50EA74
:100F800041047FF40DAF52EA43057FF4EBAE12E764
:100F90004FF0FF3C06E000BF4FF0010C02E000BF45
:100FA0004FF0010C4DF804CD4FEA410C7FEA6C5C28
:100FB0004FEA430C18BF7FEA6C5C1BD001B050EACB
:100FC000410C0CBF52EA430C91EA030F02BF90EAB6
:100FD000020F0020704710F1000F91EA030F58BF75
:100FE000994208BF90422CBFD8176FEAE37040F0D7
:100FF000010070474FEA410C7FEA6C5C02D150EA75
:10100000013C07D14FEA430C7FEA6C5CD6D152EA2F
:10101000033CD3D05DF8040B704700BF84461046F4
:1010200062468C461946634600E000BF01B5FFF7F3
:10103000B7FF002848BF10F1000F01BD4DF808EDC3
:10104000FFF7F4FF0CBF012000205DF808FB00BF94
:101050004DF808EDFFF7EAFF34BF012000205DF8EE
:1010600008FB00BF4DF808EDFFF7E0FF94BF01203B
:1010700000205DF808FB00BF4DF808EDFFF7CEFF3C
:1010800094BF012000205DF808FB00BF4DF808ED7B
:10109000FFF7C4FF34BF012000205DF808FB00BF4C
:1010A0004FEA410C7FEA6C5C02D150EA013C0AD164
:1010B0004FEA430C7FEA6C5C02D152EA033C02D156
:1010C0004FF0000070474FF0010070474FEA4102B7
:1010D00012F5001215D211D56FF47873B3EB62528A
:1010E00012D94FEAC12343F0004343EA505311F0B1
:1010F000004F23FA02F018BF404270474FF0000043
:10110000704750EA013005D111F0004008BF6FF080
:10111000004070474FF00000704700BF2DE9F04FCE
:101120008DB000240794089409940A940B940194B8
:10113000564B1A6B42F010021A631A6B02F010023F
:101140000192019A02941A6B42F004021A631A6B1C
:1011500002F004020292029A03941A6B42F0800297
:101160001A631A6B02F080020392039A04941A6BBA
:1011700042F001021A631A6B02F001020492049A0F
:1011800005941A6B42F002021A631A6B02F0020213
:101190000592059A06941A6B42F008021A631B6BBB
:1011A00003F008030693069B394E22460821304679
:1011B00000F00EFDDFF8DC9001221146484600F0F9
:1011C00007FDDFF8D48022464FF21001404600F0C0
:1011D000FFFC082707970125089509940A9407A999
:1011E000304600F003FC0795089509940A9407A976
:1011F000484600F0FBFB07970227089709940A94DA
:101200004FF0050ACDF82CA007A9484600F0EEFBE8
:1012100007954FF49019CDF82090099407A91F481D
:1012200000F0E4FB0423079308940994DFF870B0FE
:1012300007A9584600F0DAFB4FF48063079308973C
:1012400009940A94CDF82CA007A9584600F0CEFBCB
:101250004FF210030793089509940A9407A9404692
:1012600000F0C4FB202307930894099407A9404683
:1012700000F0BCFB0797CDF82090099407A93046F1
:1012800000F0B4FB0DB0BDE8F08F00BF00380240A5
:101290000010024000080240000C02400000024022
:1012A00000040240044B1B681A6812F0800FF9D04A
:1012B000C0B25860704700BFE80A002030B583B064
:1012C000044603F0B9F901280AD0204603F0B4F926
:1012D000022819D0204603F0AFF9F8B103B030BDB1
:1012E000204603F01FFC017842787F2900DDFF399A
:1012F0007F2A00DDFF3A8378C57800790190009558
:10130000134805F073F9E0E7204603F081FB03F092
:1013100089FB01460F4805F069F9DBE7204603F039
:10132000DBFA05460C4A136801331360132BD5DD35
:10133000002404E0295D094805F058F90134072C20
:10134000F8DD074805F0BCF9034B00221A60C5E739
:10135000A8BF0008D8BF00082C0B0020ECBF000875
:10136000F4BF000872B6FEE708B50A480A4B0360EE
:101370000A4B436000238360C3604FF480420261E4
:1013800043618361C361036201F02EFA00B908BDB5
:10139000FFF7E8FFF409002000540040A086010098
:1013A00008B50A480A4B03604FF4007242600023FC
:1013B0008360C3600261074A42618361C361036263
:1013C00001F0F0FA00B908BDFFF7CCFF480A002091
:1013D000003C00400077010008B50D480D4B03604C
:1013E0004FF48273436000238360C36003614361F1
:1013F0004FF400728261C3610362436283620A2315
:10140000C36202F0EDF900B908BDFFF7ABFF00BF02
:10141000900A00200030014008B50A480A4B0360DA
:101420004FF4E133436000238360C36003610C2207
:1014300042618361C36102F0BBFA00B908BDFFF7E6
:1014400091FF00BFE80A00200044004000B595B0BD
:101450003022002108A805F06BF8002303930493C1
:101460000593069307930193214A116C41F0805133
:101470001164126C02F080520192019A02931D4B8A
:101480001A6842F480421A601B6803F48043029396
:10149000029B012308934FF48033099302230E9398
:1014A0004FF480020F92082210924FF4A87211920A
:1014B00012930723139308A801F072FD98B90F2324
:1014C000039302230493002305934FF4A053069340
:1014D0004FF480530793052103A801F0C7FF20B9FB
:1014E00015B05DF804FBFFF73DFFFFF73BFF00BFC2
:1014F000003802400070004008B500F0CBF9FFF75B
:10150000A5FFFFF70BFEFFF72FFFFFF749FFFFF7E0
:1015100063FF04F09BFBFFF77FFF04F0B7FBFCE7E2
:1015200000B583B0002100910C4B5A6C42F480420C
:101530005A645A6C02F480420092009A01911A6C2B
:1015400042F080521A641B6C03F080530193019B9C
:10155000072000F0DFF903B05DF804FB003802401B
:1015600030B589B000230393049305930693079342
:101570000268144B9A4201D009B030BD0025019594
:10158000114C236B43F002032363236B03F002032C
:101590000193019B4FF410730393122304930123CF
:1015A00005930423079303A9084800F01FFA029546
:1015B000236C43F400132364236C03F4001302939D
:1015C000029BD9E70054004000380240000402406A
:1015D00070B58CB000230793089309930A930B937B
:1015E00003930493059306930268254B9A4201D016
:1015F0000CB070BD01230393C02304930223059311
:1016000003A802F009F8002837D1002400941D4BEC
:101610001A6C42F400421A641A6C02F400420092FE
:10162000009A01941A6B42F001021A631A6B02F0DD
:1016300001020192019A02941A6B42F004021A63A9
:101640001B6B03F004030293029B102307930226F3
:10165000089609940A9406250B9507A90A4800F0F4
:10166000C5F94FF4A4530793089609940A940B956F
:1016700007A9064800F0BAF9BAE7FFF773FEC4E716
:10168000003C0040003802400000024000080240D8
:1016900000B589B000230393049305930693079341
:1016A0000268144B9A4202D009B05DF804FB002195
:1016B000019103F584335A6C42F480525A645A6C97
:1016C00002F480520192019A02911A6B42F00102D7
:1016D0001A631B6B03F001030293029BE023039345
:1016E000022304930523079303A9034800F07EF91E
:1016F000DAE700BF003001400000024000B589B0C9
:101700000023039304930593069307930268154BF4
:101710009A4202D009B05DF804FB0021019103F563
:10172000FA331A6C42F400321A641A6C02F4003272
:101730000192019A02911A6B42F001021A631B6B2B
:1017400003F001030293029B0C23039302230493EF
:10175000032306930723079303A9034800F046F9E0
:10176000D8E700BF0044004000000240FEE7FEE76B
:10177000FEE7FEE7FEE770477047704708B500F0E8
:10178000A3F808BD08B5024800F043FF08BD00BF3C
:10179000841500200120704708B504F0DFFB1623F4
:1017A00003604FF0FF3008BD08B54FF0FF31FFF781
:1017B000F3FFFEE770B50C461646002506E0AFF3D2
:1017C0000080214601F8010B01350C46B542F6DBDD
:1017D000304670BD70B50C461646002504E014F87E
:1017E000010BFFF75FFD0135B542F8DB304670BDF8
:1017F00008B503460B4A126842B10A4A106803440E
:101800006A46934206D8074A136008BD054A06494E
:101810001160F2E704F0A2FB0C2303604FF0FF30ED
:10182000F3E700BF300B0020D01800204FF0FF304E
:1018300070474FF400534B60002070470120704701
:10184000002070477047000010B504460E4B187812
:101850004FF47A73B3FBF0F30C4A1068B0FBF3F06B
:1018600000F0B0F868B90F2C01D901200AE000227D
:1018700021464FF0FF3000F05FF8054B1C60002060
:1018800000E0012010BD00BF040000200000002087
:101890000800002008B50B4B1A6842F400721A6069
:1018A0001A6842F480621A601A6842F480721A6000
:1018B000032000F02FF80020FFF7C6FFFFF730FEEF
:1018C000002008BD003C0240034A1168034B1B780E
:1018D0000B441360704700BF340B0020040000204D
:1018E000014B1868704700BF340B002038B5044620
:1018F000FFF7F6FF0546B4F1FF3F02D0044B1B781B
:101900001C44FFF7EDFF401BA042FAD338BD00BFD7
:1019100004000020074AD36823F4E0631B041B0C77
:10192000000200F4E060034343F0BF6343F400337C
:10193000D360704700ED00E000B5194BDB68C3F3DE
:101940000223C3F1070CBCF1040F28BF4FF0040CB5
:1019500003F1040EBEF1060F18D9033B4FF0FF3E12
:101960000EFA0CFC21EA0C0199400EFA03F322EA6C
:101970000303194300280BDB0901C9B200F16040E1
:1019800000F5614080F800135DF804FB0023E5E7F3
:1019900000F00F000901C9B2024B1954F4E700BF6F
:1019A00000ED00E014ED00E0002807DB00F01F026E
:1019B000400901239340024A42F82030704700BF9B
:1019C00000E100E00138B0F1807F0BD24FF0E0235E
:1019D0005861054AF02182F82310002098610722FF
:1019E0001A6170470120704700ED00E000230F2BC3
:1019F00000F2E48070B582B060E085685E00032488
:101A0000B44025EA0405CC68B4402C4384604568A2
:101A100025EA02054C68C4F300129A402A4342604A
:101A20005AE0DC08083450F8246003F007029500FF
:101A30000F22AA4026EA020E0A69AA4042EA0E02D2
:101A400040F824205CE0072200E0002202FA0EF2B7
:101A50002A4302345A4D45F824205A4A14686FEA42
:101A60000C0224EA0C054E6816F4803F01D04CEAC3
:101A70000405544C2560646802EA04054E6816F4B7
:101A8000003F01D04CEA04054E4C6560A46802EAB0
:101A900004054E6816F4801F01D04CEA0405494C39
:101AA000A560E46822404D6815F4001F01D04CEA9F
:101AB0000402444CE26001330F2B7DD801229A408E
:101AC0000C6804EA020C32EA0404F4D14C6804F015
:101AD0000304013C012C90D94A6802F00302032A56
:101AE00009D0C4685D000322AA4024EA02048A687F
:101AF000AA402243C2604A6802F00302022A90D040
:101B000004684FEA430E032202FA0EF224EA0204AA
:101B10004A6802F0030202FA0EF2224302604A68A7
:101B200012F4403FC7D000220192274A546C44F47B
:101B300080445464526C02F480420192019A9C08E1
:101B4000A51C1F4A52F8255003F003024FEA820EEB
:101B50000F2202FA0EF225EA02051C4A90423FF4D7
:101B600074AF02F5806290421AD002F58062904212
:101B700018D002F58062904216D002F58062904241
:101B800014D002F58062904212D002F58062904239
:101B900010D002F5806290423FF455AF082255E71D
:101BA000012253E7022251E703224FE704224DE7C7
:101BB00005224BE7062249E702B070BD704700BF1F
:101BC00000380140003C0140003802400000024063
:101BD0000AB181617047090481617047F8B50668F0
:101BE000346A04F00F07C4F34343C4F30A14022B0E
:101BF00000D0F8BD0546002CFBD02C2303FB0703C7
:101C0000596C0029F5D02C2303FB07031A6D2244DD
:101C1000DB6C9A4206D92C2000FB0755042385F87B
:101C20006030E6E72246304601F0AFFF2C2303FB8D
:101C300007535A6C22445A641A6D22441A6506EB03
:101C40004716D6F81025C2F3C942B3F84030A34274
:101C5000CFD1002ACDD0D6F8003523F0804343F011
:101C60000043C6F800352C2303FB075595F8543084
:101C700083F0010385F85430BBE7F0B585B0044626
:101C80009DF828509DF82C60BDF8307090F8F8024F
:101C9000012837D0012084F8F8022C2000FB0140F5
:101CA0004FF0000C80F83DC080F83830A0F840704C
:101CB00080F8391080F83F6002F07F0C80F83AC05D
:101CC00012F0800F16D12C2000FB01404FF0000CC9
:101CD00080F83BC02C2000FB014080F83C5002976C
:101CE00001960095206802F09AF8002384F8F832F3
:101CF00005B0F0BD2C2000FB01404FF0010C80F836
:101D00003BC0E7E70220F3E790F8F832012B0BD055
:101D100010B50446012380F8F832006802F013F988
:101D2000002084F8F80210BD0220704700284DD032
:101D300070B58AB00446056890F8F932002B40D09F
:101D4000032384F8F932EB6B13F4807F01D1002375
:101D50002361206801F0CDFEA4465CF8106BEE46CE
:101D6000BCE80F00AEE80F00BCE80F00AEE80F00C3
:101D70009CE803008EE80300251D95E80E00304620
:101D800001F06CFE0121206801F031FFA4465CF8EF
:101D9000106BEE46BCE80F00AEE80F00BCE80F0089
:101DA000AEE80F009CE803008EE8030095E80E0003
:101DB000304601F04DFF012384F8F93200200AB0CB
:101DC00070BD80F8F83203F069FFB9E70120704771
:101DD00070B59DF81050BDF818604FF02C0C0CFB3E
:101DE000010C8CF83B208CF83F307DB964464FF0F5
:101DF000030C84F842C09DF81CC084F83DC0032B3E
:101E000000F28180DFE803F00A7929512C2404FBD9
:101E100001044FF0020C84F842C0F0E7012D72D1AA
:101E2000002A70D12EB92C2303FB0103012283F871
:101E300055202C2303FB010393F8553033B92C2391
:101E400003FB0103002283F842205CE02C2303FB08
:101E50000103022283F8422055E092B92C2303FBB0
:101E6000010393F855302BB92C2303FB010383F8AE
:101E7000422048E02C2303FB0103022283F8422086
:101E800041E02C2303FB010393F8543033B92C2396
:101E900003FB0103002283F8422034E02C2303FBE0
:101EA0000103022283F842202DE092B92C2303FB88
:101EB000010393F855302BB92C2303FB010383F85E
:101EC000422020E02C2303FB0103022283F842205E
:101ED00019E02C2303FB010393F8543033B92C236E
:101EE00003FB0103002283F842200CE02C2303FBB8
:101EF0000103022283F8422005E02C2303FB0103A7
:101F0000002283F842202C2301FB03F3C218059C16
:101F10005464D664002482F86040146582F8391055
:101F200082F8614003F13801027C0144006802F04C
:101F30008FF870BD30B583B004460568D5F84034DD
:101F40000193D5F840340093009B23F02E030093B7
:101F5000019B13F0020F07D0019B13F0010F25D155
:101F6000009B43F002030093019B13F0080F10D075
:101F7000009B43F008030093019B13F0040F2DD046
:101F8000A369022B15D0E368012B22D0204603F071
:101F9000E2FE019B13F0200F03D0009B43F02003CF
:101FA0000093009BC5F8403403B030BD03F0C6FE7B
:101FB000D6E7019B03F4C023B3F5802F04D00121A1
:101FC000206801F0BBFEE1E70221206801F0B6FEC7
:101FD000DCE74EF66022C5F80424D7E7204603F07C
:101FE000C0FED6E7F8B505460E46076807EB411771
:101FF00007F5A064A36813F0040F40D00423A36086
:10200000E36843F00203E360A36813F4007F40F049
:102010009380A36813F0010F00F0D7802B6943B1C0
:102020002C2303FB06539A6C2169C1F31201521A47
:102030001A652C2303FB0653012283F8612000213B
:10204000D965A26093F83F30002B00F08180022B0D
:102050007ED0032B00F09380012B40F083802C2353
:1020600003FB0653012283F8602093F8541051407B
:1020700083F854103146284603F06CFE72E0A368E2
:1020800013F4807F06D1A36813F0200F13D0202310
:10209000A360B9E74FF48073A3602C2303FB010313
:1020A000072283F86120E36843F00203E3600068DD
:1020B00001F049FFA8E7A36813F0080F17D1A36840
:1020C00013F4806F25D1A36813F0800F9CD0E368D0
:1020D00043F00203E3602C2303FB0103062283F891
:1020E0006120006801F02FFF8023A3608CE7E36884
:1020F00043F00203E3602C2303FB0103052283F872
:1021000061201023A3600823A360006801F01BFF77
:102110007AE7E36843F00203E3602C2303FB010347
:10212000082283F861201023A3604FF48063A3602A
:10213000006801F008FF67E7E36843F00203E3602B
:102140003146286801F0FFFE4FF40073A360F8BD2C
:10215000E36843F00203E3603146286801F0F3FED0
:102160001023A3602B69012B1AD02C2101FB0655EB
:1021700095F8543083F0010385F85430E7E7D7F839
:10218000003543F00053C7F800352C2303FB0653FA
:10219000012283F860203146284603F0DBFDE1E7A9
:1021A0002C2303FB06539A6CB3F84030B2FBF3F3D5
:1021B00013F0010FCBD02C2303FB065595F85430B8
:1021C00083F0010385F85430C1E7A36813F0020FD0
:1021D00064D0E36823F00203E3602C2303FB06537F
:1021E00093F86130012B13D0052B23D0062B28D078
:1021F000082B26D0032B42D0072B0FD12C2303FB17
:102200000653DA6D0132DA65042283F8602005E0B6
:102210002C2303FB0653012283F860200223A360D2
:102220002C2303FB065393F860203146284603F025
:1022300091FD8CE72C2303FB0653052283F86020D5
:10224000ECE72C2202FB0652D36D0133D365022B3F
:1022500006D913460022DA65042283F86020DDE700
:102260002C2303FB0653022283F86020D7F80035A5
:1022700023F0804343F00043C7F80035CEE72C231A
:1022800003FB0653022283F86020D7F8003523F0C1
:10229000804343F00043C7F80035BFE7A36813F05D
:1022A000100F3FF454AF2C2303FB065393F83F3039
:1022B000032B0CD00BB1022B06D12C2303FB0653AE
:1022C0000022DA652B6983B11023A3603FE72C233A
:1022D00003FB06530022DA65E36843F00203E36080
:1022E0003146286801F02FFEEEE72C2303FB06534E
:1022F000032283F86120E36843F00203E360314680
:10230000286801F020FEDFE770B5036803EB411396
:1023100003F5A064A26812F0040F06D00423A360A2
:10232000E36843F00203E36070BD05460E46A26811
:1023300012F0200F18D02023A3602C2303FB0103ED
:1023400093F83D30012BEFD12C2303FB0103002236
:1023500083F83D20022283F86020E3681343E360A2
:10236000006801F0F0FDDFE7A26812F4007F24D1DD
:10237000A26812F0010F2BD02C2303FB01030022D3
:10238000DA65A36813F0400F07D02C2303FB010389
:10239000012283F83D204023A360E36843F0020359
:1023A000E3603146286801F0CEFD0123A3602C21B3
:1023B00001FB065585F86130B6E7E36843F0020398
:1023C000E360006801F0BFFD4FF40073A360ABE76A
:1023D000A26812F0400F29D1A26812F0080F3AD17A
:1023E000A26812F0100F46D02C2303FB0103002239
:1023F000DA65032283F8612093F83D305BB92C2322
:1024000003FB010393F83C302BB92C2303FB01039E
:10241000012283F83D20E36843F00203E360314684
:10242000286801F090FD1023A3607DE72C2303FBB7
:102430000103042283F86120012283F83D20002259
:10244000DA65E36843F00203E360006801F07BFDB6
:102450004023A36068E70823A360E36843F0020316
:10246000E360006801F06FFD2C2303FB0655052394
:1024700085F8613058E7A26812F0800F29D003690F
:1024800083B12C2202FB0102D36D0133D365022BF1
:1024900016D82C2303FB0105022385F86030802326
:1024A000A36041E72C2303FB0103062283F861208C
:1024B000E36843F00203E360006801F044FDEEE7E7
:1024C00013460022DA65042283F8602003F042FC00
:1024D000E5E7A26812F4806F27D1A26812F0020F1C
:1024E0003FF422AFE26822F00202E2602C2202FBFB
:1024F000010292F86120012A2AD0032A5BD0042A23
:102500006BD0052A70D0062A01D0082A59D12C2177
:1025100001FB0651CA6D0132CA65022A6AD900223E
:10252000CA65042281F860204BE0E36843F00203AF
:10253000E360006801F007FD1023A3604FF480639F
:10254000A3602C2303FB0655082385F86130EBE6D6
:102550002C2303FB010383F8602093F83F30023BF8
:10256000DBB293422DD8016941B92C2303FB06034A
:1025700093F8552082F0010283F85520012920D1DB
:102580002C2303FB0653DB6CDBB12C2202FB06522F
:10259000B2F840201344013BB3FBF2F313F0010FF8
:1025A0000FD02C2303FB065393F8552082F0010231
:1025B00083F8552005E02C2303FB0103022283F856
:1025C00060200223A3602C2303FB065393F86020B2
:1025D0003146284603F0BEFBA6E62C2303FB01038D
:1025E000022283F86020ECE72C2303FB010383F82D
:1025F0006020E6E72C2202FB0652022182F86010DE
:10260000D3F8002522F0804242F00042C3F80025B2
:10261000D7E7F8B504460568284601F0E4FA012832
:1026200000D0F8BD206801F0DAFA0028F9D020685F
:1026300001F0D5FA10F4001F03D023684FF4001204
:102640005A61206801F0CBFA10F4801F03D0236890
:102650004FF480125A61206801F0C1FA10F0806FC7
:1026600003D023684FF080625A61206801F0B7FA06
:1026700010F0020F02D0236802225A61206801F094
:10268000AEFA10F0005F08D023684FF000525A6194
:10269000D5F8403413F0010F1DD0206801F09FFAE7
:1026A00010F0807F26D1206801F099FA10F0080F11
:1026B00024D1206801F093FA10F0100F25D1206882
:1026C00001F08DFA10F0007FABD0206801F036FCED
:1026D000074600262CE01021284601F011FA284672
:1026E00001F026FA0121206801F028FB204603F0C2
:1026F0002BFBD2E72046FFF71DFCD4E7204603F072
:1027000017FB236808225A61D3E72268936923F0F4
:10271000100393612046FFF761FA2268936943F042
:1027200010039361CBE7F1B22046FFF7EDFD0136D0
:10273000A368B34212D906F00F0327FA03F313F08C
:10274000010FF4D005EB4613D3F8003513F4004F16
:10275000E9D0F1B22046FFF745FCE8E723684FF0E7
:1027600000725A615DE790F8F832012B0ED010B577
:102770000446012180F8F812006801F01DFB206872
:1027800001F0B1F9002084F8F80210BD0220704772
:1027900090F8F832012B0BD010B50446012380F8D5
:1027A000F832006801F00AFD002084F8F80210BD3C
:1027B0000220704708B5006801F0DFFA08BD2C233D
:1027C00003FB010090F8600070472C2303FB01001D
:1027D000006D704708B5006801F01CFB08BD08B526
:1027E000006801F00CFB08BD002800F0CC8070B53B
:1027F000044690F83D30002B77D0242384F83D30F8
:102800002268136823F0010313602268136843F4FD
:10281000004313602268136823F40043136000F040
:10282000DBFE62685A4B9A4264D85A4B98428CBF7E
:1028300000230123002B40F0A8805749A1FB003161
:102840008B0C25686A6822F03F0242EA91426A6076
:1028500021680A6A22F03F0266684D4DAE424FD8A9
:10286000013313430B622168CA6922F44F4222F0FC
:10287000FF026668464B9E424CD8431E7600B3FB6F
:10288000F6F3013340F6FC70034278D0C3F30B0338
:102890001343CB6121680B6823F0C003E269206A0F
:1028A000024313430B6021688B6823F4034323F036
:1028B000FF032269E068024313438B602168CB6801
:1028C00023F0FF036269A06902431343CB602268CF
:1028D000136843F00103136000202064202384F870
:1028E0003D30206384F83E0070BD80F83C30FEF738
:1028F00037FE82E7294B98428CBF0023012399E7DA
:102900004FF4967505FB03F3254DA5FB03539B0977
:102910000133A6E7A368BBB9451E06EB460CB5FB21
:10292000FCF50135C5F30B05B5FA85F56D0945BB19
:10293000C3B9013806EB4603B0FBF3F30133C3F32D
:102940000B0343F40043A3E7451E06EB860C0CEB98
:102950008C0CB5FBFCF50135C5F30B05B5FA85F517
:102960006D09E4E7013806EB860303EB8303B0FB54
:10297000F3F30133C3F30B0343F4404388E7042329
:1029800086E7012384E7012070470120ACE700BF00
:10299000A08601007F841E0083DE1B43FF083D00EC
:1029A000D34D6210002800F0BF8038B5044690F87F
:1029B0004130002B51D0022284F841202168CB699C
:1029C00023F47B6323F00F03CB6123681A626369EE
:1029D000934263D0E368002B46D11025A368202BD7
:1029E00000D86D00012000F0C1FE2369B3F5007F1F
:1029F0003CD0B0FBF5F000EB800043006069B3FB16
:102A0000F0F30533494AA2FB0323C3F3C002C2EB30
:102A1000D3035B0811029A1EFD2A41D822690A439A
:102A2000216813430B622168CB6923F47B6323F095
:102A30000F036268A0680243E0680243A069024392
:102A4000134343F40063CB61236A012B2ED0002093
:102A50006064012384F8413038BD80F84030344B45
:102A60004363FEF7B5FDA6E72025B7E7E36853B15A
:102A7000AD00B0FBF5F000EB800043006069B3FBF4
:102A8000F0F30533BEE7ED00B0FBF5F000EB80009E
:102A900043006069B3FBF0F30533B3E70021BAE705
:102AA000636C43F0100363640120D5E7214B63633B
:102AB0002268214B9A421FD04FF04022D36923F461
:102AC0007B6323F00F03D36122681B4B9A4215D01E
:102AD0004FF0402302221A622268174B9A4210D00C
:102AE0004FF04025EB699BB26268B2F5007F0AD0D7
:102AF000C2B94FF4807008E0104ADFE7A3F58063A5
:102B0000E8E70E4DEEE74FF48070B4F808C0A189F5
:102B1000228B40EA0C0001430A43134343F4006351
:102B2000EB6194E70020F0E701207047CDCCCCCCDE
:102B3000B72B0008C92D00080038004000340040C1
:102B4000704708B5426A03681288DA60436A023344
:102B50004362438D9BB2013B9BB24385438D9BB245
:102B600003B108BD0268536823F0A003536001233A
:102B700080F84130FFF7E4FFF3E7704708B50368DA
:102B8000DA68C36A1A80C36A0233C362438E9BB297
:102B9000013B9BB24386438E9BB203B108BD0268E2
:102BA000536823F060035360012380F84130FFF73E
:102BB000E4FFF3E7704710B584B0044602689368F9
:102BC000039390F84130DBB2042B06D094F84130E7
:102BD000DBB2032B2CD004B010BD039B13F0010F0C
:102BE00003D0536813F0400F1FD1039B13F0400F25
:102BF000ECD023685A6812F0200FE7D05A6822F010
:102C000060025A60002301932368DA6801929B688E
:102C10000193019B012384F84130636C43F002036C
:102C200063642046FFF7C6FFD0E7FFF7A7FFDCE7A6
:102C3000039B13F0020F04D023685B6813F0800F2E
:102C40001DD1039B13F0080FC5D023685A6812F0FA
:102C5000200FC0D05A6822F0A0025A6000230293CD
:102C600023689B680293029B012384F84130636CC4
:102C700043F0040363642046FFF79CFFABE7204664
:102C8000FFF75FFFDDE7704708B5436A9A1C4262B1
:102C900002681B88D360438D9BB2013B9BB2438586
:102CA000438D9BB23BB90268536823F0A003536085
:102CB000438E9BB203B108BD012380F84130FFF77A
:102CC000E2FFF8E708B50268154B9A421CD04FF0B6
:102CD0004023DA68C36A991CC1621A80438E9BB292
:102CE000013B9BB24386438E9BB263B902680C4B97
:102CF0009A420CD04FF04022536823F06003536097
:102D0000438D9BB22BB108BDA3F58063E1E7054A73
:102D1000F2E7012380F84130FFF7B5FFF3E700BF8A
:102D2000003800400034004008B5436A9A1C4262F3
:102D30001A880168134B994218D04FF04023DA608B
:102D4000438D9BB2013B9BB24385438D9BB263B9DC
:102D500002680C4B9A420CD04FF04022536823F08B
:102D6000A0035360438E9BB22BB108BDA3F58063D3
:102D7000E5E7054AF2E7012380F84130FFF783FFDA
:102D8000F3E700BF003800400034004008B5036896
:102D9000DA68C36A991CC1621A80438E9BB2013BF8
:102DA0009BB24386438E9BB23BB90268536823F0C3
:102DB00060035360438D9BB203B108BD012380F8CB
:102DC0004130FFF760FFF8E710B586B004460368AE
:102DD0009A680592704A93426FD04FF040229168F2
:102DE00004915B680393536802936368B3F5007FB3
:102DF00001D0002B70D1059B13F0020F03D0039B71
:102E000013F0800F5CD1049B13F0010F03D0029BE1
:102E100013F0400F58D1049B13F0400F24D0029BB5
:102E200013F0200F20D022685B4B9A4250D04FF015
:102E30004022536823F0600353602268536823F0F4
:102E4000A0035360002300932368DA6800929B6814
:102E50000093009B012384F84130636C43F002032C
:102E600063642046FFF7A6FE059B13F0080F22D0EF
:102E7000039B13F0200F1ED02268536823F0A00399
:102E800053602268444B9A4224D04FF0402253684A
:102E900023F0600353600023019323689B68019330
:102EA000019B012384F84130636C43F004036364A5
:102EB0002046FFF77FFE06B010BDA2F580628EE7C8
:102EC0002046FFF7E1FE9EE72046FFF7FBFEA2E764
:102ED000324AAEE7314ADAE7049B13F0020F03D01F
:102EE000029B13F0800F4AD1059B13F0010F03D012
:102EF000039B13F0400F46D1059B13F0400F1CD0ED
:102F0000039B13F0200F18D02268536823F060034E
:102F100053602268204B9A4239D04FF040225368C8
:102F200023F0A0035360012384F84130636C43F025
:102F3000020363642046FFF73DFE049B13F0080F75
:102F4000B9D0029B13F0200FB5D02268124B9A42E1
:102F50001FD04FF04022536823F0A0035360226833
:102F6000536823F060035360012384F84130636C9D
:102F700043F0040363642046FFF71CFE9BE72046F2
:102F8000FFF7D2FEB0E72046FFF700FFB4E7034AA1
:102F9000C5E7024ADFE700BF0038004000340040C8
:102FA000002800F0E08170B582B00446036813F099
:102FB000010F3BD09F4B9B6803F00C03042B2CD0DC
:102FC0009C4B9B6803F00C03082B21D06368B3F57E
:102FD000803F4FD0B3F5A02F52D0964B1A6822F401
:102FE00080321A601A6822F480221A606368002B0B
:102FF00050D0FEF775FC05468E4B1B6813F4003F5E
:1030000014D1FEF76DFC401B6428F5D90320B1E113
:10301000884B5B6813F4800FD8D0864B1B6813F481
:10302000003F03D06368002B00F09F81236813F0FA
:10303000020F54D07F4B9B6813F00C0F3ED07D4B9A
:103040009B6803F00C03082B33D0E368002B68D097
:10305000794B01221A60FEF743FC0546754B1B684D
:1030600013F0020F54D1FEF73BFC401B0228F5D9A8
:1030700003207FE16F4A136843F480331360B5E7A0
:103080006C4B1A6842F480221A601A6842F480324B
:103090001A60ABE7FEF724FC0546664B1B6813F489
:1030A000003FC3D0FEF71CFC401B6428F5D9032069
:1030B00060E1604B5B6813F4800FC6D15D4B1B6809
:1030C00013F0020F03D0E368012B40F05081594AFE
:1030D000136823F0F803216943EAC10313602368EE
:1030E00013F0080F42D063696BB3534B0122C3F84E
:1030F000802EFEF7F5FB05464E4B5B6F13F0020F7B
:1031000034D1FEF7EDFB401B0228F5D9032031E155
:10311000484A136823F0F803216943EAC1031360A6
:10312000DDE7454B00221A60FEF7DAFB0546414B0E
:103130001B6813F0020FD2D0FEF7D2FB401B02280F
:10314000F5D9032016E13C4B0022C3F8802EFEF790
:10315000C7FB0546374B5B6F13F0020F06D0FEF737
:10316000BFFB401B0228F5D9032003E1236813F0BD
:10317000040F77D02F4B1B6C13F0805F33D10023EB
:1031800001932C4B1A6C42F080521A641B6C03F0B2
:1031900080530193019B0125284B1B6813F4807F0A
:1031A00023D0A368012B34D0052B38D0214B1A6FC4
:1031B00022F001021A671A6F22F004021A67A3684C
:1031C000002B3DD0FEF78CFB06461A4B1B6F13F00D
:1031D000020F46D1FEF784FB801B41F288339842F0
:1031E000F3D90320C6E00025D6E7144A136843F458
:1031F00080731360FEF774FB0646104B1B6813F4D4
:10320000807FCED1FEF76CFB801B0228F5D903200E
:10321000B0E0084A136F43F001031367CFE7054B93
:103220001A6F42F004021A671A6F42F001021A671D
:10323000C5E700BF00380240000047420070004070
:10324000FEF74EFB0646524B1B6F13F0020F08D0E1
:10325000FEF746FB801B41F288339842F3D90320E6
:1032600088E0EDB9A369002B00F08380484A92689A
:1032700002F00C02082A51D0022B17D0454B002235
:103280001A66FEF72DFB0446414B1B6813F0007FC6
:1032900042D0FEF725FB001B0228F5D9032069E088
:1032A0003B4A136C23F080531364DBE7394B002255
:1032B0001A66FEF715FB0546354B1B6813F0007FB9
:1032C00006D0FEF70DFB401B0228F5D9032051E084
:1032D000E369226A1343626A43EA8213A26A5208CC
:1032E000013A43EA0243E26A43EA0263284A53602E
:1032F000284B01221A66FEF7F3FA0446244B1B689A
:1033000013F0007F06D1FEF7EBFA001B0228F5D977
:1033100003202FE000202DE000202BE0012B2BD0FC
:103320001B4B5B6803F48001E269914226D103F0F4
:103330003F02216A8A4223D1616A47F6C0721A406D
:10334000B2EB811F1ED103F44031A26A5208013A48
:10335000B1EB024F18D103F07063E26AB3EB026F76
:1033600014D1002006E001207047012002E0012076
:1033700000E0002002B070BD0120FBE70120F9E76A
:103380000120F7E70120F5E70120F3E70120F1E74D
:10339000003802400000474208B5314B9B6803F0FB
:1033A0000C03042B57D0082B57D12D4B5A6802F031
:1033B0003F025B6813F4800F2AD0294B5968C1F390
:1033C000881C4FEA4C11B1EB0C006EEB0E0E4FEA6D
:1033D0008E1343EA90638101091A63EB0E03DB004D
:1033E00043EA5173C90011EB0C0C43F1000359027D
:1033F00000234FEA4C2041EADC51FCF701FF184B57
:103400005B68C3F3014301335B00B0FBF3F025E0DD
:10341000134B5968C1F3881C4FEA4C11B1EB0C00F7
:103420006EEB0E0E4FEA8E1343EA90638101091A88
:1034300063EB0E03DB0043EA5173C90011EB0C0C84
:1034400043F10003990200234FEA8C2041EA9C518A
:10345000FCF7D6FED3E7034800E0034808BD00BFF1
:103460000038024000127A000024F400002800F026
:103470009B8070B50D4604464F4B1B6803F0070355
:103480008B4208D2CBB24C4A1370136803F0070387
:103490008B4240F08B80236813F0020F17D013F09B
:1034A000040F04D0454A936843F4E05393602368C3
:1034B00013F0080F04D0414A936843F460439360CB
:1034C0003E4A936823F0F003A1680B43936023689E
:1034D00013F0010F32D06368012B21D09A1E012A0C
:1034E00025D9364A126812F0020F61D033498A6832
:1034F00022F0030213438B60FEF7F2F906462F4BCE
:103500009B6803F00C036268B3EB820F16D0FEF7E2
:10351000E7F9801B41F288339842F0D9032042E05A
:10352000264A126812F4003FE0D101203BE0234A12
:10353000126812F0007FD9D1012034E01E4B1B68C5
:1035400003F00703AB4207D9EAB21B4B1A701B68A2
:1035500003F00703AB422DD1236813F0040F06D00C
:10356000164A936823F4E053E1680B4393602368A1
:1035700013F0080F07D0114A936823F460432169C0
:1035800043EAC1039360FFF707FF0C4B9B68C3F34B
:1035900003130B4AD35CD8400A4B18600A4B1868D7
:1035A000FEF752F9002070BD012070470120FAE7B4
:1035B0000120F8E70120F6E7003C02400038024015
:1035C000F8BF00080000002008000020014B186828
:1035D000704700BF0000002008B5FFF7F7FF044B5D
:1035E0009B68C3F38223034AD35CD84008BD00BF65
:1035F0000038024008C0000808B5FFF7E7FF044B99
:103600009B68C3F34233034AD35CD84008BD00BF74
:103610000038024008C0000830B583B00446036893
:1036200013F0050F06D1236813F0020F2ED10020EE
:1036300003B030BD4A4B00229A66FEF751F90546A9
:10364000484B1B6813F0006F06D0FEF749F9431B87
:10365000022BF5D90320EBE76268A3681B0743EA56
:103660008213404AC2F884303D4B01229A66FEF72D
:1036700037F905463B4B1B6813F0006FD3D1FEF7BB
:103680002FF9431B022BF5D90320D1E70023019327
:10369000344B1A6C42F080521A641B6C03F0805356
:1036A0000193019B304A136843F480731360FEF763
:1036B00017F905462C4B1B6813F4807F06D1FEF7E3
:1036C0000FF9431B022BF5D90320B1E7254B1B6FE4
:1036D00013F4407314D0E26802F440729A420FD09F
:1036E000204B1A6F22F440721D490120C1F8400E90
:1036F0000020C1F8400E1A671B6F13F0010F13D1A1
:10370000E36803F44072B2F5407F1ED0154A936817
:1037100023F4F813936013490B6FE268C2F30B02B2
:1037200013430B67002083E7FEF7DAF805460D4BDD
:103730001B6F13F0020FE3D1FEF7D2F8401B41F2EA
:1037400088339842F3D9032072E706498A6822F445
:10375000F81223F0704323F4407313438B60DAE7CD
:10376000000047420038024000700040012801D0AC
:1037700000207047164B9B6813F4000303D0012B05
:1037800023D114487047124B5B6813F4800F14D098
:103790000F4B5B6803F03F030F48B0FBF3F30C4A99
:1037A000D2F88400C0F3881003FB00F0D2F8843014
:1037B000C3F30273B0FBF3F07047054B5B6803F093
:1037C0003F030648B0FBF3F3E9E70020704700BF72
:1037D000003802400080BB0000127A000024F40090
:1037E00000285AD010B50446436A33B94368B3F58C
:1037F000827F05D00023C36102E00023036143619F
:103800000023A36294F85130002B40D0022384F8A7
:1038100051302268136823F040031360636803F497
:103820008273A26802F404421343E26802F4006265
:103830001343226902F002021343626902F001029B
:103840001343A26902F400721343E26902F03802E2
:103850001343226A02F080021343A26A02F4005268
:10386000216813430B60638B03F00403626A02F068
:103870001002216813434B602268D36923F400636C
:10388000D36100206065012384F8513010BD84F8B5
:1038900050302046FDF7FCFEB8E7012070470000DD
:1038A00038B504460268136923F44053C1680B43DA
:1038B000136183680269134342691343C2691A435F
:1038C0000168CB6823F4164323F00C031343CB6049
:1038D0000268536923F4407381690B4353610368A1
:1038E000314A934206D002F58062934202D0FFF73C
:1038F00073FE01E0FFF780FEE369B3F5004F29D0C6
:103900000021031849411B1841F10001C90041EA97
:103910005371DB00181863684FEA83024FEA937310
:1039200041F10001FCF76CFC204DA5FB0032510970
:10393000642303FB11031B013233A5FB03235B0943
:1039400003F0F00202EB011203F00F0321681344AD
:103950008B6038BD0023021843EB0301121841F1BC
:103960000001C90041EA5271D200101841F1000172
:10397000626892185B41FCF743FC0C4DA5FB0032DA
:103980005109642303FB1103DB003233A5FB03233E
:103990005B095A0002F4F87202EB011203F007030C
:1039A000216813448B60D4E7001001401F85EB5160
:1039B00058B310B5044690F83D300BB3242384F877
:1039C0003D302268D36823F40053D3602046FFF7CC
:1039D00067FF2268136923F49043136122685369D7
:1039E00023F02A0353612268D36843F40053D36061
:1039F00000202064202384F83D3084F83E3010BD40
:103A000080F83C30FDF77AFED8E7012070470000CF
:103A100082B000230193019B013301930E4A93422C
:103A200014D80369002BF6DA00230193036943F0ED
:103A300001030361019B01330193074A934208D8B4
:103A4000036913F0010FF5D1002000E0032002B05C
:103A500070470320FBE700BF400D030084B010B5A2
:103A6000044603A880E80E00089B012B1FD1A36B1E
:103A700023F48033A363E36823F4840323F0400337
:103A8000E360E36823F44013E3600F9B012B09D04C
:103A90002046FFF7BDFF069B012B1BD0BDE8104061
:103AA00004B07047E36843F48013E360F0E7E36831
:103AB00043F04003E3602046FFF7AAFF0C9B23B9C5
:103AC000A36B43F48033A363E5E7A36B23F4803354
:103AD000A363E0E7A36843F00603A360A36843F091
:103AE0002003A360DAE7836843F0010383600020CA
:103AF0007047836823F00103836000207047000053
:103B000082B000230193890141F020010161019BF2
:103B100001330193054A934205D8036913F0200F3E
:103B2000F5D1002000E0032002B07047400D0300F3
:103B300082B00023019310230361019B01330193A1
:103B4000054A934205D8036913F0100FF5D1002000
:103B500000E0032002B07047400D030010B59DF84F
:103B6000084084B903334FEA930E4FF0000C08E08D
:103B700000EB023303F5805351F8044B1C600CF149
:103B8000010CF445F4D3002010BD00B583B0844689
:103B900008464FEA920E02F00302002305E00CF5FE
:103BA0008051096840F8041B01337345F7D39AB17B
:103BB0000CF5805CDCF8003001934FF0000C5FFAEC
:103BC0008CF3D900019BCB4000F8013B0CF1010CB8
:103BD000013A92B2002AF2D103B05DF804FB4269C7
:103BE000806910407047406900F00100704738B5A7
:103BF0000546C36823F0C043C360012913D019BB35
:103C0000C36843F08043C36000240120FDF76EFECB
:103C100001342846FFF7E7FF08B1312CF5D9322CE3
:103C200014D0002038BDC36843F00053C3600024A3
:103C30000120FDF75BFE01342846FFF7D4FF012881
:103C4000EDD0312CF4D9EAE70120EBE70120E9E7D8
:103C500084B010B5044603A880E80E000023C4F821
:103C6000003EA36B43F40013A363A36B23F4002370
:103C7000A363A36B23F48023A363E36B13F4807F1C
:103C800010D0059B012B06D0D4F8003423F0040398
:103C9000C4F800340CE0D4F8003443F00403C4F852
:103CA000003405E0D4F8003423F00403C4F80034F1
:103CB00010212046FFF724FF2046FFF739FF00229E
:103CC00009E004EB42134FF0FF31C3F8081500215F
:103CD000C3F80C150132049B9342F2D80023A36170
:103CE0004FF0FF336361E36B13F4807F17D04FF421
:103CF0000073636203F18073A3620D4BC4F800315B
:103D0000069B1BB9A36943F01003A361A269094B89
:103D10001343A3610020BDE8104004B07047802326
:103D2000636203F5C003A362034BC4F80031E7E705
:103D30000003E000080020A3E000400000F5806CD4
:103D4000D0F8003423F00303C0F80034D0F8003476
:103D500001F003021343C0F80034012903D0022903
:103D600006D0002070474BF68033CCF80430F8E7DB
:103D700041F27073CCF80430F3E730B583B00446F9
:103D800000250195D0F840340193019B23F02E03C8
:103D90000193019B43F48073C0F840346420FDF725
:103DA000A5FD019B23F48073C4F840340A20FDF77D
:103DB0009DFD284603B030BD82B000230193D0F8AA
:103DC00040340193019B23F02E030193019B13F4D4
:103DD000805F01D101290CD0019B13F4805F05D0D5
:103DE00021B9019B23F48053C0F84034002002B075
:103DF0007047019B43F48053C0F84034ECE782B035
:103E000000230193D0F8403401930198C0F341405E
:103E100002B0704700F58060806880B270472DE97D
:103E2000F84391461C469DF8245000EB411606F5D8
:103E3000A0634FF0FF329A60032D6AD8DFE805F0E7
:103E4000025B021840F29D42DA6019F0800F09D13E
:103E5000C26B12F4807F5ED0DA6842F06002DA60F2
:103E600000270CE0DA6842F48072DA60002706E08E
:103E700040F29D62DA6019F0800F36D10027D0F849
:103E8000183401F00F01012202FA01F11943C0F8C0
:103E90001814836943F00073836119F0800F3CD1DB
:103EA0004FF00008FFF7ABFF9DF82030022B37D012
:103EB0000021A30503F0FE534FEAC92909F4F04994
:103EC00043EA0903AC0404F440242343BDF828204A
:103ED000C2F30A02134343EA08030B43C6F8003552
:103EE000032D24D03846BDE8F883DA6842F48072A6
:103EF000DA600027C3E740F22522DA6019F0800F6C
:103F000001D10027BBE7DA6842F4C072DA6000270B
:103F1000B5E70127B3E70027B1E74FF40048C1E751
:103F2000022802D04FF40031C3E70021C1E7D6F8E0
:103F3000003543F00053C6F80035D3E700F5806044
:103F4000406980B2704730B400EB411101F5A062C6
:103F5000D1F80035C3F38143D1F80045856815F0E9
:103F6000200F02D0E40F002C55D033B3022B24D005
:103F7000D1F8003543F08043C1F80035D0F8103453
:103F800013F47F034AD1D1F8000520F00040C1F8B6
:103F90000005D1F8000540F00040C1F80005D1F857
:103FA000000520F40040C1F800050133B3F57A7F25
:103FB00031D811680029F8DB2DE0D1F8003543F045
:103FC0008043C1F80035836813F0200F23D1C36A02
:103FD00013F47F0319D1D1F8000520F00040C1F897
:103FE0000005D1F8000540F00040C1F80005D1F807
:103FF000000520F40040C1F800050133B3F57A7FD5
:1040000009D811680029F8DB05E0D1F8003543F044
:104010000043C1F80035002030BC7047D1F80035AE
:1040200043F00043C1F80035F5E7000000EB411113
:10403000064AC1F81025D1F8003523F0804343F03B
:104040000043C1F800350020704700BF0000088021
:1040500030B585B04B78C46B14F4807F07D00C79F1
:104060002CB9012A16D012B94C79012C1FD04C69F9
:104070000CB30D8904EB050C0CF1FF3CBCFBF5FC0B
:104080001FFA8CFCBCF5807F17D92D020D614FF40F
:10409000807C12E0CC790CB1022CE4D100EB43140B
:1040A000D4F80C5525F07005C4F80C55DBE74978B9
:1040B000FFF7BCFF70E04FF0010CCD78002D52D01F
:1040C0000C8904FB0CF40C610C69C4F312043A4D26
:1040D00005EACC4C44EA0C0491F80AC04FEA4C7C47
:1040E0000CF0C04C00EB431344EA0C04C3F8104539
:1040F00012B1CC68C3F8144500F5806CDCF80840B8
:1041000014F0010F0CBF4FF0010E4FF0000ED3F86A
:10411000005525F00055C3F80055D3F8004544EA92
:104120004E74C3F80045D3F800450394039C24F073
:1041300080440394CC78C4B1039C44F400440394B9
:10414000039C44F000440394039CC3F800451ABB4D
:10415000CB780BBB4B69FBB1CA79032A15D8DFE8D2
:1041600002F0091E091E0C61AEE7039C24F4004412
:104170000394E5E70333C26A92B2C3F38F039A4212
:1041800003D2836943F020038361002300938B8A69
:104190004A78C968FFF7E2FC002005B030BD033360
:1041A000DCF8102092B2C3F38F039A42EDD28369F8
:1041B00043F080638361E8E70000F81F10B5044610
:1041C000FFF797FC10212046FFF79AFC2046FFF7E7
:1041D000AFFC00220AE004EB4211D1F8003523F0D5
:1041E000802343F08043C1F8003501320F2AF2D911
:1041F0000020034600E001300F2813D804EB401CD8
:104200000CF5A061DCF8002522F4004242F04042A7
:10421000CCF800250133B3F57A7FECD80A68002A80
:10422000F8DBE8E74FF0FF33C4F81434636120464D
:10423000FFF759FC002010BDD0F89C39DB699A7853
:10424000062A01D000207047D0F8E429196A521AD2
:10425000998B8A42F6D304229A70F3E730B583B083
:104260008C78CB7844EA0324092C23D905460846E8
:104270000923ADF80630BDF80630A3421AD20DF17D
:10428000060101F005FB4378212BF4D103782B7054
:1042900043786B708378C27843EA02236B8003799A
:1042A0002B7143796B718379AB71C379027A43EADD
:1042B00002232B8103B030BD38B50446D0F89C39B9
:1042C000DD69697869B92978A1B9D4F89C39D869C8
:1042D00028B101F075FED4F89C390022DA61002083
:1042E00038BD01F077FC6978204601F08CFC002392
:1042F0006B70E8E7204601F06DFC2978204601F05C
:1043000082FC00232B70E0E72DE9F04385B00446E2
:10431000D0F89C19FF230022097900F031FF06280C
:104320004CD807460146204600F0E6FE81460028AC
:1043300040F0BC80D4F89C59342001F039FEE8618B
:10434000D4F89C39DD69002D47D03422002128465D
:1043500002F0EEF80723AB707A2303FB074393F8D0
:104360004936012B45D0022B4CD0002B53D152485B
:1043700002F03CF90A2002F04DF9504B2B63002368
:10438000AB706B717A2303FB074393F84E26AA7632
:10439000B3F850262A8393F85236AB83092B01D801
:1043A0000A23AB837A2303FB074393F84686B8F1CD
:1043B0000E0F28BF4FF00E084E464FE0404802F067
:1043C00015F9D4F89C3919683E4802F00FF90A2013
:1043D00002F020F94FF002096AE0394802F006F9CC
:1043E000394802F003F90A2002F014F94FF00209EB
:1043F0005EE0364802F0FAF80A2002F00BF9344B7E
:104400002B63BCE7334802F0F1F80A2002F002F90E
:10441000314B2B63B3E7314802F0E8F80A2002F091
:10442000F9F84FF0020943E02971204601F0D7FB6B
:10443000014668702A792B8B02930323019394F829
:104440001D36009394F81C36204601F0B3FB002281
:104450006978204601F0E0FC0136F6B2464527D2E5
:10446000731C7A2207FB02F202EBC303234493F886
:10447000461693F94636002BD6DBE970204601F04C
:10448000AEFB01462870EA782B8B0293032301933D
:1044900094F81D36009394F81C36204601F08AFBF0
:1044A00000222978204601F0B7FCD5E74FF0020939
:1044B000484605B0BDE8F08398C000088148000870
:1044C00010C000081CC0000844C000086CC00008F0
:1044D000B149000884C00008CD4A0008B0C00008F7
:1044E00000B583B0009100F507734FF40852012125
:1044F00001F056FA03B05DF804FB08B54FF0210C4B
:1045000080F810C04FF00A0C80F811C042EA012276
:10451000428200218182C1820A4601F021FA08BD4F
:1045200008B54FF0A10E80F810E04FF0010E80F8B2
:1045300011E042EA01224282002282829DF8082094
:10454000C282194601F00CFA08BD08B52123037494
:104550000B23437441B10023438200218182C18235
:104560000A4601F0FDF908BD01234382F5E700008A
:1045700070B50546D0F89C39DE697479052C52D89F
:10458000DFE804F003510E03243500F11C0106F1AD
:104590002600FFF763FE022373710124204670BDDD
:1045A000F18DFFF79DFF18B9042373710124F5E71E
:1045B000032801D00124F1E71C4802F017F81C4839
:1045C00002F014F80A2002F025F8E7E7002211466D
:1045D000FFF793FF18B9052373710124DEE7032861
:1045E00001D00124DAE7052373710124D6E7002105
:1045F000FFF7ABFF044638B901237371D5F8F439DE
:10460000022128469847C9E7032801D00124C5E7BD
:10461000064801F0EBFF074801F0E8FF0A2001F02F
:10462000F9FF0224BAE70124B8E700BFC8C00008B8
:10463000D0C0000810C100080378DBB20B2B01D0FA
:10464000FF20704790F824367A2202FB030090F88E
:104650004906012805D0022805D000B97047FF207F
:104660007047022070470120F8E700238380C38051
:10467000837202810160704703468C46817A41BB98
:10468000012181720020904223D200B506E0002271
:104690009A721CE0013080B2904215D2D988B3F8EA
:1046A00004E07145F3D0D3F800E01EF801100CF8D7
:1046B000011BD988013189B2D980B3F808E071456E
:1046C000E8D10021D980E5E70021997210465DF814
:1046D00004FB002199721046704703468C46817A8C
:1046E00059BB012181720020904226D230B507E0EB
:1046F00084B900229A721FE0013080B2904218D231
:10470000B3F804E00EF10101DC88A142F1D01D896B
:10471000A942EDD019681CF8014B01F80E409988A8
:10472000013189B299801C89A142E5D1002199808B
:10473000E2E700219972104630BD002199721046BF
:10474000704770B582B00546D0F89C39DE69B47800
:10475000062C6BD8DFE804F0040B6A6A30273E00B1
:10476000336B98470123B370204602B070BD736964
:10477000327E009200220121FFF7D2FE044610B9DA
:104780000523B370F0E7012805D0032807D00723DD
:10479000B3700224E8E70123B3700024E4E70523A3
:1047A000B3700024E0E7D0F8E43913F0010F3FD0F4
:1047B0000423B3700024D7E77378327E716901F067
:1047C000D6F90623B370D5F8E4393362002486F8AD
:1047D0002440C9E7717801F00BFB012807D07178FC
:1047E000284601F005FB052817D00024BCE77178A6
:1047F000284601F0F7FA96F82440DCB90028B3D037
:10480000328B716906F10800FFF767FF012386F814
:1048100024302846FCF752FDA6E7B17E284601F079
:104820005DF9044640B90423B3709DE700249BE77B
:10483000002499E7002497E7002495E710B5D0F805
:104840009C39DC69228BA2B10B4904F10800FFF707
:1048500013FF238B98420AD0022010BD064AD15C78
:10486000064AD1540133072BF8DD0020F5E7002379
:10487000F9E70220F1E700BF400B0020380B0020D1
:1048800038B5D0F89C39DD69002303E00F4A0024D5
:10489000D4540133072BF9DD002305E000220C4C32
:1048A000E2540C4CE2540133072BF7D92B8B082B25
:1048B00001D908232B83074B6B61502200F5077148
:1048C00005F10800FFF7D1FE002038BD380B0020AD
:1048D000400B0020480B002008B5FFF7AFFF08B9D8
:1048E000014808BD0020FCE7380B002010B5D0F8C7
:1048F0009C39DC69228B002A41D0224904F108004E
:10490000FFF7BAFE238B984201D0022010BD002190
:104910001D4800F011F91D4C607000211C4800F08A
:104920000BF9A07000211B4800F006F9E07000218F
:10493000194800F001F920710021184800F0FCF836
:1049400060710021164800F0F7F8A07100211548A9
:1049500000F0F2F8E0710021134800F0EDF8207249
:10496000002408E02146114800F0E6F8074B2344F4
:1049700058720134E4B2052CF4D90020C6E70220B5
:10498000C4E700BF600B00207CC30008500B002070
:10499000BCC300085CC300089CC30008FCC300083B
:1049A0003CC40008DCC300081CC400083CC3000869
:1049B00010B5D0F89C39DC69124A0023937053700B
:1049C0001371D370937153711372D37107E0002286
:1049D0000D4941F823200D4941F823200133012BD3
:1049E000F5D9238B082B01D908232383074B636157
:1049F000502200F5077104F10800FFF736FE002091
:104A000010BD00BF500B0020600B0020680B002081
:104A100008B5FFF76BFF08B9014808BD0020FCE7A7
:104A2000500B00208378012B01D083792BB1437A7E
:104A3000054AD35C054AD05C7047437A024AD35C8E
:104A4000034AD05C704700BF4CC10008B8C20008E0
:104A500034C2000810B5D0F89C39DC69228B2AB327
:104A6000134904F10800FFF707FE238B984201D099
:104A7000022010BD00210F4800F05EF80E4C20709F
:104A800000210E4800F058F8607000210C4800F03A
:104A900053F8A07000210B4800F04EF8E0700021A0
:104AA000094800F049F820710020E2E70220E0E721
:104AB000780B0020BCC40008700B0020DCC4000888
:104AC0005CC400087CC400089CC4000810B5D0F881
:104AD0009C39DC69104A0023137053709370D370B3
:104AE000137107E000220D4941F823200C4941F8D9
:104AF00023200133012BF5D9238B082B01D908235F
:104B00002383074B6361502200F5077104F108000D
:104B1000FFF7ABFD002010BD700B0020780B0020CC
:104B2000800B002008B5FFF795FF08B9014808BDC4
:104B30000020FCE7700B002030B586460468057A3B
:104B4000437A43B18B4244D9426802FB015204EBE1
:104B5000D20402F0070500231A4607E04FEAD10C01
:104B600063450DD22278D80082400133DEF804106C
:104B700011F0070FF2D04FEAD10C0CF1010CEFE766
:104B8000EA4001238B404FF0FF30884022EA0000CA
:104B9000DEF80C2082421ED8DEF8102082421CD3A0
:104BA0009EF80A2072B10139012202FA01F1014294
:104BB00008D05B421843DEF81C3093420CD003FB54
:104BC00000F009E0DEF81C30012B05D003FB00F0FB
:104BD00002E0002000E0002030BD0020FCE7844619
:104BE000002306E003F51A720CEB820200215160EB
:104BF00001330E2BF6D9002305E00CEB0302002154
:104C000082F81C120133B3F5806FF6D300208CF8C4
:104C100000008CF8010001238CF80230CCF8E40984
:104C20008CF8183040228CF806208CF819008CF88B
:104C30001C068CF81D368CF81F068CF81E06704773
:104C400008B50378DBB20B2B00D008BDD0F89C3937
:104C5000002BFAD09B699847F7E7000070B584B045
:104C600004464578072D00F2E881DFE815F00800DA
:104C700057009900E10015014A017701BF010821A1
:104C800000F0AFFE18B1032821D001254CE094F8C4
:104C90002D36A3710125657002930026019694F8C4
:104CA0001D36009394F81C3680222179204600F0AE
:104CB00081FFA3790293019694F81D36009394F82E
:104CC0001C3632466179204600F074FF2CE0BA4869
:104CD00001F08CFCB94801F089FC0A2001F09AFC33
:104CE00094F81E360133DBB284F81E36032B09D943
:104CF000B34801F07BFC0A2001F08CFC0D232370EB
:104D0000012511E06179204600F07DFF21792046E0
:104D100000F079FF00232370012505E0122100F047
:104D200060FE20B1032815D0284604B070BDB4F849
:104D30003016A44801F05AFC0A2001F06BFCB4F8CC
:104D40002E16A14801F052FC0A2001F063FC022358
:104D50006370E9E7984801F049FC9C4801F046FC83
:104D60000A2001F057FC94F81E360133DBB284F8B8
:104D70001E36032B08D9924801F038FC0A2001F0B6
:104D800049FC0D232370CFE76179204600F03BFFFB
:104D90002179204600F037FF002363702370C3E7BA
:104DA000012100F068FE18B103282CD00125BBE7D3
:104DB000022001F046F8012584F81C562946844853
:104DC00001F014FC0A2001F025FC03236370A37991
:104DD00002930026019694F81D36009394F81C3631
:104DE00080222179204600F0E5FEA3790293019606
:104DF00094F81D36009394F81C36324661792046AB
:104E000000F0D8FE90E76C4801F0F0FB714801F02B
:104E1000EDFB0A2001F0FEFB694801F0E7FB0A20E8
:104E200001F0F8FB0D2323700023637001257BE75D
:104E3000092100F0EFFD18B904236370012573E721
:104E4000032801D001256FE75B4801F0CFFB6248E2
:104E500001F0CCFB0A2001F0DDFB94F81E36013393
:104E6000DBB284F81E36032B09D9554801F0BEFB8E
:104E70000A2001F0CFFB0D232370012554E761794F
:104E8000204600F0C0FE2179204600F0BCFE002341
:104E900063702370012547E7B0F83A1600F0BAFDB9
:104EA00018B90523637001253EE7032801D00125C9
:104EB0003AE7414801F09AFB474801F097FB0A2086
:104EC00001F0A8FB94F81E360133DBB284F81E36DD
:104ED000032B09D93A4801F089FB0A2001F09AFB1B
:104EE0000D23237001251FE76179204600F08BFE1A
:104EF0002179204600F087FE00236370237001258E
:104F000012E790F83416F9B100F50775FF232A4629
:104F100000F099FD18B103280CD0012504E72946BB
:104F20002E4801F063FB0A2001F074FB0623637036
:104F30000125F9E62A4801F059FB0A2001F06AFB35
:104F4000062363700125EFE6254801F04FFB0A2098
:104F500001F060FB062363700125E5E690F8351645
:104F6000F9B100F50775FF232A4600F06CFD18B172
:104F700003280CD00125D7E629461A4801F036FB54
:104F80000A2001F047FB072363700125CCE6164891
:104F900001F02CFB0A2001F03DFB07236370012583
:104FA000C2E6114801F022FB0A2001F033FB07237F
:104FB00063700125B8E600BFC8C00008FCC4000843
:104FC00030C5000870C500087CC5000888C5000809
:104FD000C4C50008DCC5000810C6000854C6000897
:104FE00068C600087CC600088CC6000890F83656D3
:104FF000E5B100F50776FF233246294600F023FD90
:10500000054618B1032809D001258DE631460C4824
:1050100001F0ECFA0A2001F0FDFA85E6094801F0FA
:10502000E5FA0A2001F0F6FA00257DE6054801F0D0
:10503000DDFA0A2001F0EEFA76E6012574E600BFFB
:105040009CC60008B0C6000870B5D0B10E46044634
:1050500080F8EC290025C0F89C59C0F8A059FFF74A
:10506000BEFD84F8235684F8205684F8215684F82F
:1050700022560EB1C4F8F469204600F079FE0020F3
:1050800070BD054801F0B2FA044801F0AFFA0A20F9
:1050900001F0C0FA0220F3E7C8C00008C4C6000847
:1050A00008B5B9B10A46D0F8A03943B9591CC0F8BF
:1050B000A01903F2662340F82320002008BD0B4806
:1050C00001F094FA0A4801F091FA0A2001F0A2FADC
:1050D0000220F3E7054801F089FA064801F086FA54
:1050E0000A2001F097FA0220E8E700BFC8C00008D4
:1050F000D8C60008F4C6000838B590F83C368B4294
:1051000026D904460D4680F82416174801F06EFA99
:105110000A2001F07FFA7A2101FB054494F8471632
:10512000124801F063FA0A2001F074FA94F8481664
:105130000F4801F05BFA0A2001F06CFA94F8491666
:105140000C4801F053FA0A2001F064FA002038BD3F
:10515000094801F04BFA094801F048FA0A2001F029
:1051600059FA0220F3E700BF0CC700082CC700085B
:105170003CC700084CC70008C8C000085CC700084E
:1051800010B5044600200BE04FF07A0C0CFB0E4EDD
:105190009EF849C69C451CD0FF2B1AD00130C0B2E6
:1051A000062815D886464FF07A0C0CFB004C9CF86C
:1051B00047C68C4501D0FF29F0D14FF07A0C0CFB8B
:1051C0000E4C9CF848C69445DED0FF2AE6D1DBE7BA
:1051D000FF2010BD10B5044600F041FE012120461D
:1051E00000F00CFE002010BD30B587B0044602234D
:1051F0008DF8173090F82136DBB2012B12D02378CE
:10520000DBB20B2B00F28E80DFE813F00F002700DB
:10521000570062018C008F002D01B100BB00CB0054
:10522000E200590103230370E9E794F82036002BCC
:1052300078D0BD4801F0DAF90A2001F0EBF901233A
:105240002370C82000F0FDFD204600F018FE00236A
:1052500084F81C36C4F8E83964E094F82336012B4E
:105260000FD0D4F8E839B3F57A7F1FD994F81F36F8
:105270000133DBB284F81F36032B0ED800232370D2
:1052800050E0AA4801F0B2F90A2001F0C3F9002366
:1052900084F81F360223237044E0A54801F0A6F9E4
:1052A0000A2001F0B7F90D2323703BE00A33C4F85C
:1052B000E8390A2000F0C5FD34E0D4F8F43913B120
:1052C000042120469847642000F0BBFD204600F0F2
:1052D00079FD84F81D06052323700021204600F087
:1052E0007EFC60718021204600F079FC014620712F
:1052F000A37902930025019594F81D36009394F844
:105300001C368022204600F055FCA37902930195BB
:1053100094F81D36009394F81C362A46617920468D
:1053200000F048FC002007B030BD2046FFF796FC97
:105330008DF817009DF81730002BF3D17D4801F050
:1053400055F90A2001F066F9002384F8243694F810
:105350003736012B02D007232370E3E7764801F0AC
:1053600045F90A2001F056F908232370DAE7D4F84A
:10537000F439002BD6D0012120469847082323700A
:10538000D0E794F83D16204600F086FB0028C9D1EE
:1053900009232370694801F029F90A2001F03AF93C
:1053A000C0E794F83F3613F0200F02D10A23237090
:1053B000B8E70121204600F080FB0028B2D1604808
:1053C00001F014F90A2001F025F90A232370A9E756
:1053D000D4F8A039E3B10023C4F89C39FBB1D4F868
:1053E0009C39002B36D09B682046984730BB06235B
:1053F0002370D4F89C391968524801F0F7F80A2054
:1054000001F008F9D4F8F43903212046984789E7D8
:105410004D4801F0EBF80A2001F0FCF882E703F2B6
:10542000662254F82220107994F84716884202D058
:105430000133DBB2D2E7C4F89C29D0E70D232370F7
:10544000D4F89C391968414801F0D0F80A2001F0DD
:10545000E1F867E70D2323703D4801F0C7F80A2003
:1054600001F0D8F85EE7D4F89C39E3B11B69204617
:1054700098478DF817009DF8173013B90B23237048
:1054800050E79DF81730DBB2022B7FF44BAF0D23B2
:105490002370304801F0AAF82F4801F0A7F80A203D
:1054A00001F0B8F83EE70D2323702A4801F09EF87A
:1054B0002A4801F09BF80A2001F0ACF832E7D4F852
:1054C0009C39002B3FF42EAF5B692046984729E7B3
:1054D000002384F821362046FFF781FBD4F89C395D
:1054E0002BB1DB68204698470023C4F89C39D4F8D8
:1054F000F43913B1052120469847194801F076F890
:105500000A2001F087F894F82236DBB2012B03D091
:10551000204600F0A4FC05E7002384F8223620464C
:10552000FFF758FEFEE600BF7CC7000894C70008DE
:10553000B0C70008DCC70008F0C7000818C800089A
:1055400034C8000874C8000854C8000888C8000897
:10555000A8C80008C8C00008D0C80008F8C80008DB
:1055600010C90008C0F8E419704708B5D0F8E4295C
:105570000132C0F8E429FFF763FB08BD012380F87E
:1055800023367047002380F82336704703460122F4
:1055900080F82026002083F8210683F82206704731
:1055A00038B50446012380F82136002580F82056BE
:1055B00080F8235600F05BFC2179204600F023FBA5
:1055C0006179204600F01FFB284638BD0B78037038
:1055D0004B7843708B7891F803C043EA0C234380E7
:1055E0000B7903714B7943718B798371CB79C371DB
:1055F000082A16D90B7A4A7A43EA022303818B7A66
:10560000CA7A43EA022343810B7B4A7B43EA0223A3
:1056100083818B7B8373CB7BC3730B7C03744B7C49
:10562000437470470B7803704B7843708B788370AA
:10563000CB78C3700B7903714B7943718B7983718C
:10564000CB79C3710B7A037270470B7803704B7878
:1056500043708B788370CB78C3700B794A7943EAB7
:10566000022383808B79837170474378032B00D0AA
:1056700070470378023B9A4228BF1A4692B2002331
:1056800007E000EB030C9CF802C001F801CB0233E9
:105690009BB29342F5D300230B70E9E730B583B09A
:1056A0000446057E6B1E0A2B00F2E780DFE803F05C
:1056B0000610354154617E8A9DAAC100427900F1ED
:1056C000100100F01DFA02232376284603B030BDF6
:1056D000417900F08DFB0546012805D0042818D03B
:1056E000022816D00125F0E7237CE28A42B113F0AC
:1056F000800F02D105232376E7E703232376E4E72F
:1057000013F0800F02D107232376DEE709232376E7
:10571000DBE70B2323760125D7E7D0F8E439C381F3
:1057200003798289816800F012FA04232376012527
:10573000CBE7017900F05CFB012806D0052800F0DA
:105740009E80042804D00125BFE709232376F5E7CE
:105750000B2323760125B8E701250095437982893B
:10576000816800F0DEF9D4F8E439E381062323767A
:10577000ABE7417900F03CFB0546012807D005283E
:1057800008D002280AD004280CD001259DE7072361
:1057900023769AE70C232376032596E705232376C1
:1057A000012592E70B23237602258EE70379002259
:1057B000114600F0CCF9D4F8E439E38108232376CC
:1057C000012582E7017900F013FB012805D00428A8
:1057D00007D0052855D0012577E70D23237600252E
:1057E00073E70B23237601256FE7012500954379A5
:1057F0000022114600F095F9D4F8E439E3810A2338
:10580000237662E7417900F0F3FA012805D00228F7
:1058100007D0042809D0012557E70D23237600255A
:1058200053E70923237601254FE70B232376012530
:105830004BE7437E0133DBB24376022B03D80125CD
:105840000576857041E7D0F8F439062198470025A0
:1058500065760D4800F0CAFE0C4800F0C7FE0A202D
:1058600000F0D8FE6179204600F0CDF9217920467C
:1058700000F0C9F92570022527E7012525E7032552
:1058800023E7032521E700BFC8C0000828C9000896
:1058900003780A8813440B800378184470472DE975
:1058A000F04182B00C460B7803704B7843708B78D4
:1058B000C97843EA012343802379037163794371F3
:1058C000A3798371E379C371237A0372092A44D9D6
:1058D00005460923ADF806300026062E3DD86A8815
:1058E000BDF806309A4238D90DF106012046FFF77F
:1058F000CFFF04464378042BEFD1B0467A2006FB55
:1059000000F00830284421460230FFF78BFE0027C4
:105910007A2303FB08539B7BBB421BD96A88BDF8E3
:1059200006309A4216D90DF106012046FFF7B0FF66
:1059300004464378052BEBD101377A2000FB08F0B1
:1059400000EBC7000830284421460430FFF77DFEF5
:10595000FFB2DDE70136F6B2BFE702B0BDE8F08185
:1059600010B504468078012803D0022808D0012011
:1059700010BDA160A281012323760223A370F7E763
:105980002046FFF78BFE30B1032804D00228EFD168
:105990000123A370ECE70123A37000232376E7E73C
:1059A00008B58E4694461946BDF808208378012B29
:1059B00002D0FFF7D5FF08BD6EF07F0E80F810E033
:1059C00006234374A0F812C00CF47F4CBCF5407F52
:1059D00003D000238382C282EBE740F20943838233
:1059E000F9E7F0B583B0044600F507760D4600915F
:1059F00033464FF480720021FFF7D2FF074610B103
:105A0000384603B0F0BD2A46314604F22660FFF75F
:105A1000DDFDF5E7F0B583B004460D4600F11C0648
:105A2000009133464FF400720021FFF7B9FF07469B
:105A300010B1384603B0F0BD2A46314604F5C760C0
:105A4000FFF72DFFF5E7F0B583B016461D4600F5CC
:105A500007740093234641F440720021FFF7A0FF32
:105A6000074610B1384603B0F0BD2A4631462046FD
:105A7000FFF7FBFDF6E708B58378012B04D0002281
:105A80001146FFF76DFF08BD002303740522427421
:105A900041828382C382F2E708B58378012B04D068
:105AA00000221146FFF75CFF08BD002303740922A2
:105AB000427441828382C382F2E708B58378012B66
:105AC00004D000221146FFF74BFF08BD00230374EA
:105AD0000322427441828382C382F2E708B583784D
:105AE000012B04D000221146FFF73AFF08BD022324
:105AF000037401234374002343828182C382F1E74C
:105B000010B584B00B46114600240394082202927B
